:020000001429C1
:100200008A010A140F3982073F3406345B344F34B5
:1002100066346D347D3407347F34673477347C340E
:1002200039345E34793471340317831688018901B7
:10023000031383160F178F120F160F140313831651
:100240008112811101158114011403138316850194
:100250008601870189010313831608178817031382
:100260008312850186018701880189010130F1002F
:100270000301F2013D3081005A21881B4621881F6D
:100280004821081B5021081F52213C2970140800E6
:10029000701C0800F10A710800218500F0010800B7
:1002A000F0140800F01C0800F1037108002185001B
:1002B000F00108000B1D5A293D3081000B11860A00
:1002C000F20AF21C0800F21D0800F201870A071A60
:1002D00087016B21080007087102031D0800890AC5
:1002E00075218701F201031108003230F3007B21F0
:1002F000F30B772908009630F400F40B7D290800F1
:04400E00D420FF3F7C
:00000001FF
